{
  "contractName": "Favor",
  "abi": [
    {
      "constant": true,
      "inputs": [
        {
          "internalType": "uint256",
          "name": "",
          "type": "uint256"
        }
      ],
      "name": "favors",
      "outputs": [
        {
          "internalType": "uint256",
          "name": "",
          "type": "uint256"
        }
      ],
      "payable": false,
      "stateMutability": "view",
      "type": "function"
    },
    {
      "constant": false,
      "inputs": [
        {
          "internalType": "uint256",
          "name": "petId",
          "type": "uint256"
        }
      ],
      "name": "like",
      "outputs": [
        {
          "internalType": "uint256",
          "name": "",
          "type": "uint256"
        }
      ],
      "payable": false,
      "stateMutability": "nonpayable",
      "type": "function"
    },
    {
      "constant": true,
      "inputs": [],
      "name": "getFavors",
      "outputs": [
        {
          "internalType": "uint256[16]",
          "name": "",
          "type": "uint256[16]"
        }
      ],
      "payable": false,
      "stateMutability": "view",
      "type": "function"
    }
  ],
  "bytecode": "0x608060405234801561001057600080fd5b5061020c806100206000396000f3fe608060405234801561001057600080fd5b50600436106100415760003560e01c8063388f1fa014610046578063d4886b8a1461008c578063e82935da146100ce575b600080fd5b61004e610110565b6040518082601060200280838360005b8381101561007957808201518184015260208101905061005e565b5050505090500191505060405180910390f35b6100b8600480360360208110156100a257600080fd5b810190808035906020019092919050505061015b565b6040518082815260200191505060405180910390f35b6100fa600480360360208110156100e457600080fd5b8101908080359060200190929190505050610173565b6040518082815260200191505060405180910390f35b6101186101b4565b6000601080602002604051908101604052809291908260108015610151576020028201915b81548152602001906001019080831161013d575b5050505050905090565b6000816010811061016857fe5b016000915090505481565b60008082101580156101865750600f8211155b61018f57600080fd5b60016000836010811061019e57fe5b0160008282540192505081905550819050919050565b60405180610200016040528060109060208202803883398082019150509050509056fea265627a7a72315820fb28eb1bca064bc5758f6819544f228291827760448992cef31c43055e06e91364736f6c63430005100032",
  "source": "pragma solidity ^0.5.0;\n\ncontract Favor {\n  uint[16] public favors;\n\n  // Adopting a pet\n  function like(uint petId) public returns (uint) {\n    require(petId >= 0 && petId <= 15);\n\n    favors[petId] += 1;\n    return petId;\n  }\n\n  // Retrieving the adopters\n  function getFavors() public view returns (uint[16] memory) {\n    return favors;\n  }\n\n}",
  "sourcePath": "/Users/vincent/GitRepo/pet-shop-tutorial/contracts/Favor.sol",
  "compiler": {
    "name": "solc",
    "version": "0.5.16+commit.9c3226ce.Emscripten.clang"
  },
  "schemaVersion": "3.4.7",
  "updatedAt": "2022-04-27T21:26:02.857Z",
  "devdoc": {
    "methods": {}
  },
  "userdoc": {
    "methods": {}
  }
}